:10006600436172626F6E2D46726565204361720050
:100076003D3E3E004C656674204D696420526967BA
:100086006874000000000000000000002F0000005F
:10009600000700070000147F147F1400242A7F2A1B
:1000A60012006264081323003649552250000005E9
:1000B60003000000001C224100000041221C000039
:1000C60014083E08140008083E0808000000A06056
:1000D6000000080808080800006060000000201002
:1000E600080402003E5149453E0000427F400000A0
:1000F6004261514946002141454B31001814127F97
:1001060010002745454539003C4A494930000171F0
:1001160009050300364949493600064949291E00A2
:100126000036360000000056360000000814224152
:1001360000001414141414000041221408000201D3
:1001460051090600324959513E007C1211127C00B9
:100156007F49494936003E41414122007F414122C3
:100166001C007F49494941007F09090901003E41B8
:1001760049497A007F0808087F0000417F41000056
:100186002040413F01007F08142241007F4040404B
:1001960040007F020C027F007F0408107F003E4172
:1001A60041413E007F09090906003E4151215E009A
:1001B6007F091929460046494949310001017F0155
:1001C60001003F4040403F001F2040201F003F40AD
:1001D60038403F00631408146300070870080700DE
:1001E600615149454300007F41410000552A552A87
:1001F60055000041417F0000040201020400404016
:10020600404040000001020400002054545478008D
:100216007F48444438003844444420003844444825
:100226007F00385454541800087E0901020018A4AF
:10023600A4A47C007F080404780000447D400000EC
:100246004080847D00007F102844000000417F40EC
:1002560000007C04180478007C0804047800384404
:1002660044443800FC242424180018242418FC00D4
:100276007C0804040800485454542000043F4440B9
:1002860020003C4040207C001C2040201C003C40BC
:1002960030403C004428102844001CA0A0A07C004C
:1002A6004464544C44141414141414000000000044
:1002B6000000000000000000000000000000F80040
:1002C600000000000000333000000000100C061093
:1002D6000C0600000000000000000040C07840C08E
:1002E600784000043F04043F040400007088FC08C2
:1002F600300000001820FF211E0000F008F000E08A
:1003060018000000211C031E211E0000F008887042
:100316000000001E2123241927211010160E0000AC
:100326000000000000000000000000000000E018CF
:10033600040200000000071820400000020418E034
:100346000000000040201807000000404080F080B8
:100356004040000202010F01020200000000F0000E
:100366000000000101011F01010100000000000062
:1003760000000080B07000000000000000000000D7
:100386000000000001010101010101000000000060
:100396000000000030300000000000000000008077
:1003A600601804006018060100000000E01008084C
:1003B60010E000000F102020100F00001010F800B1
:1003C6000000000020203F202000000070080808E0
:1003D60088700000302824222130000030088888E8
:1003E6004830000018202020110E000000C0201008
:1003F600F8000000070424243F240000F808888839
:100406000808000019212020110E0000E01088883D
:10041600180000000F112020110E0000380808C82F
:100426003808000000003F0000000000708808083F
:10043600887000001C222121221C0000E010080800
:1004460010E0000000312222110F00000000C0C0A1
:1004560000000000000030300000000000008000B6
:1004660000000000008060000000000000804020C6
:1004760010080000010204081020004040404040DF
:100486004040000404040404040400000810204052
:1004960080000000201008040201000070480808CF
:1004A60008F0000000003036010000C030C828E81F
:1004B60010E0000718272423140B000000C038E0C2
:1004C600000000203C23020227382008F88888888C
:1004D600700000203F202020110E00C030080808C0
:1004E600083800071820202010080008F808080817
:1004F60010E000203F202020100F0008F88888E830
:10050600081000203F20202320180008F88888E8DB
:10051600081000203F200003000000C03008080833
:1005260038000007182020221E020008F8080000E4
:1005360008F808203F210101213F20000808F8089B
:100546000800000020203F2020000000000808F8D6
:10055600080800C08080807F00000008F888C02856
:10056600180800203F20012638200008F80800005F
:10057600000000203F20202020300008F8F800F876
:10058600F80800203F003F003F200008F830C00078
:1005960008F808203F200007183F00E01008080868
:1005A60010E0000F10202020100F0008F80808089F
:1005B60008F000203F210101010000E010080808B2
:1005C60010E0000F18242438504F0008F888888857
:1005D600887000203F2000030C3020007088080837
:1005E6000838000038202121221C00180808F808C5
:1005F6000818000000203F2000000008F80800004E
:1006060008F808001F202020201F00087888000016
:10061600C83808000007380E010000F80800F80086
:1006260008F800033C0700073C03000818688080B0
:1006360068180820302C03032C30200838C800C85E
:100646003808000000203F2000000010080808C8F5
:100656003808002038262120201800000000FE025D
:100666000202000000007F40404000000C30C00045
:10067600000000000000010638C00000020202FE71
:10068600000000004040407F00000000000402021D
:10069600020400000000000000000000000000004E
:1006A600000000808080808080808000020204003C
:1006B60000000000000000000000000000808080B4
:1006C6008000000019242222223F2008F8008080A2
:1006D600000000003F112020110E00000000808065
:1006E600800000000E1120202011000000008080F4
:1006F60088F800000E112020103F20000080808026
:10070600800000001F222222221300008080F08831
:100716008888180020203F2020000000008080806C
:10072600808000006B94949493600008F8008080A9
:10073600800000203F210000203F20008098980084
:100746000000000020203F202000000000008098CC
:1007560098000000C08080807F000008F8000080BC
:10076600808000203F24022D302000000808F80079
:100776000000000020203F20200000808080808034
:10078600808000203F20003F20003F808000808046
:10079600800000203F210000203F20000080808054
:1007A600800000001F202020201F00808000808005
:1007B60000000080FFA12020110E000000008080B4
:1007C600808000000E112020A0FF808080800080A5
:1007D60080800020203F21200001000000808080D2
:1007E6008080000033242424241900008080E080C7
:1007F6008000000000001F20200000808000000014
:10080600808000001F202020103F20808080000074
:1008160080808000010E3008060100808000800084
:100826008080800F300C030C300F00008080008029
:100836008080000020312E0E312000808080000054
:1008460080808080818E7018060100008080808004
:100856008080000021302C22213000000000008022
:100866007C020200000000003F404000000000FF44
:1008760000000000000000FF0000000002027C8073
:100886000000000040403F00000000000601010299
:100896000204040000000000000000AE2010B0C8F2
:1008A60000104081DFA1A6A83FA4D300D5F0D9222D
:1008B600DA12DB208D14AF000000000000000000FB
:0B08C600000000000000000000000027
:101CB2000255000002470000016B06C184C102C147
:101CC20001014F5A014B5AC103C100025A000001DF
:101CD2001601055C00000000000550000000000035
:101CE200014C41C105C10601465A01725A0418004D
:101CF200000000011700026C0000026500000249AA
:021D02000000DF
:0921A700D2A0D2A1C2A1C2A02263
:0921B000C2A0C2A1D2A0D2A1225A
:071F1400AD071221A77F7841
:101F1B00E4FEEF30E704D2A18002C2A1D2A0C2A09E
:0E1F2B00EF25E0FF0EBE08EAD2A1D2A0C2A0B0
:011F39002285
:0D202D0024B0FF12203AE4FF12203A7F1089
:10203A00121F14E4FF121F1BAF05121F1B0221B04F
:1020FA00121F147F40121F1BAF05121F1B0221B0B3
:0720E900F583E493FF7D0184
:0A20F000ED60030220FA12203A22EC
:101FC900AC07ED24B0FFE4FD1220F0EC54F0C4544A
:101FD9000F4410FFE4FD1220F0EC540FFFE4FD0262
:021FE90020F0E6
:101E9A00E4FCEC24B0FFE4FD1220F0E4FDFF122084
:101EAA00F0E4FD7F101220F0E4FB7D01E4FF122034
:091EBA00F00BBB80F50CBC08D94B
:011EC30022FC
:0617A800AA05A907AF032A
:1017AE00E4FCE530B41004EA25E0FAEF24E0FBE9AE
:1017BE00D3947F4004E4F90A0AE53064107050AF08
:1017CE0001AD02121FC9E4FC75F010EBA42CF582DA
:1017DE00E435F0F583E58224B1F582E58334021217
:1017EE0020E90CBC08E2AF01EA04FD121FC9E4FCBB
:1017FE0075F010EBA42CF582E435F0F583E5822428
:10180E00B9F582E58334021220E90CBC08E222AF5E
:10181E0001AD02121FC9E4FC75F006EBA42489F594
:10182E0082E5F03400F583E5822CF582E4358312EF
:06183E0020E90CBC06E2EB
:011844002281
:041E07008F2D8D2E60
:101E0B00E4753201F531F530F52FAF2E152EEF605D
:101E1B001BAB32AA31A930A82FAF2DE4FCFDFE126B
:101E2B000E9D8F328E318D308C2F80DEAF32AE31E6
:041E3B00AD30AC2FEB
:011E3F002280
:041BB7008F228D23C9
:101BBB00E4F52CF52AE52AC39528506FC3E5289543
:101BCB002A14FD7F0A121E07A804A905AA06AB0753
:101BDB00AF27AE26AD25AC24120F28E47B0AFAF909
:101BEB00F8120F28AF038F2BE52C7023E52814FF79
:101BFB00E52AC39F5019E52B7012E529C313852ADB
:101C0B00F0A42522FF8529307B208016752C01E559
:101C1B0029C313852AF0A42522FFE52B2430FB854D
:0B1C2B002930AD231217A8052A808A7B
:011C3600228B
:0A1D4E008F228D238B248A2589261D
:101D5800E4F528AB24AA25A92685288275830012D4
:101D68000DB6FB6020852730AD23AF221217A8746B
:101D7800082522F522D394784007E4F522052305A7
:051D880023052880CEB8
:011D8D002233
:02207C00AC07AF
:10207E00E4FBEB12202DE4FAAF041220FA0ABA8028
:05208E00F70BBB08ED9B
:01209300222A
:061D8E008B108A1189127E
:101D9400E4F514F515FCEC12202DE4F513AB10AAB0
:101DA40011A9120515E515AE147002051414F58277
:101DB4008E83120DB6FF1220FA0513E513C3948027
:061DC40040DB0CBC08D05E
:011DCA0022F6
:0F210A00E4FCEC9008A193FF12203A0CBC1CF3EC
:0121190022A3
:101A0E001220AC121FA61221B912210A12216D75D5
:101A1E00A8AE43AF04121E9A7BFF7A007966752733
:101A2E0010E4FDFF121D4E785A7600087601785AA2
:101A3E00E6FE08E6FFC39468EE940050187BFF7A2A
:101A4E000079767527107D02121D4E785B06E6181A
:101A5E0070DC0680D9121E9A7BFF7A00797A752780
:101A6E0010E4FD7F08121D4EE4785AF608F6D28C6B
:101A7E007F08FE1220C1D28E121C37121D0B1214BB
:0F1A8E00B61215BE1218451212971213AD80EC46
:101C3700E47888F6785AF608F6121D0B1214B6786F
:101C47005BE6247EF8A616785B06E618700106C3E5
:101C5700785BE6940A18E6940040DEE4785AF608C2
:101C6700F6785AE6FE08E6FFC3940AEE940050138E
:101C7700747E2FF8E6788826F6785B06E61870E11A
:101C87000680DE7888E675F00A84FF7862F6E48FCE
:101C970027F526F525F5247528017529107D027F7E
:0A1CA70068121BB77874E67864F643
:011CB1002210
:1014B600E508FEE509FF786EEEF608EFF6AC06AD38
:1014C60007E50CAB0D08F6EB08F6D3ED942CEC947F
:1014D600014034786EE6FE08E6FFE4FCFDFB7A8008
:1014E600F9F8D3120FC8401F7870E6FE08E6FFE44D
:1014F600FCFD7B467AFFF8D3120FC840057516012E
:1015060080487516028043786EE6FE08E6FFE4FC26
:10151600FDFB7A80F9F8C3120FC8502E786EE6FEEE
:1015260008E6FFE4FCFD7B6E7AFFF8120FC8401A4E
:101536007870E6FE08E6FFE4FCFD7B46F8120FC86D
:10154600500575160580037516067870E6FE08E6E2
:10155600FFE4FCFDFB7A80F9F8D3120FC8401B7834
:101566006EE6FE08E6FFE4FCFDF8D3120FC8400560
:10157600751603803675160480317870E6FE08E627
:10158600FFE4FCFD7B4C7AFEF9F8D3120FC8401B32
:10159600786EE6FE08E6FFE4FCFDFB7A80F8120FA3
:1015A600C8500575160780037516087F3B121FEB9A
:0815B6007857A60608A60722DB
:1015BE003001030216497862E6FFD39403502C7E65
:1015CE0000EF2403FDEE33FCAB16C3EB9DEC648001
:1015DE00F87480984015EF2405FFEE33FED3EB9F91
:1015EE00EE6480F87480985002C2047862E6FFC3FD
:1015FE0094064016EF24FBFFE516C39F400CE6242D
:10160E00FDFFE516D39F5002C2047862E6FFB404D4
:10161E0013E5166401600BE51664076005E516B464
:10162E000802C204EFB40513E5166401600BE5165B
:10163E0064026005E516B40802C204200436784C34
:10164E0076427864E6FF7E007857E6FC08E6FDC336
:10165E009FFBEC9EFAD3EB941EEA94005010C3EF5E
:10166E009DFFEE9CFED3EF941EEE94004006D20238
:10167E00784C76433002317864E6FF7E007857E688
:10168E00FC08E6FDC39FFBEC9EFAC3EB940FEA94B5
:10169E0000400FEF9DFFEE9CFEC3EF940FEE940003
:1016AE005006D201784C7644300109300206D2043D
:0516BE00784C76452286
:1018450078247C007D007BFF7A0879BD7E007F14BB
:10185500120D77752301E4F522AF23121DCBE52286
:1018650025E02424F8A60608A6070522E522C39448
:101875000A40E67B007A0079247D0A1216C3AF2F51
:10188500AE2E121A9D745C2523F8A6070523E523C1
:10189500C3940440C175230174502523F8E6FF74F1
:1018A5005C2523F8E62FFFE433C313EF13FF745CC5
:1018B5002523F8A607745C2523F8E6FF7450252335
:1018C500F8A6070523E523B404CE785DE67861F62E
:0C18D500785EE67863F6785FE67859F6F6
:0118E10022E4
:101A9D008E388F39D3E53994F4E5389401400675C5
:101AAD0038017539F4C3E539944BE5389400500687
:101ABD0075380075394BD3E539947DE5389400AC14
:101ACD0038AD39E44028120BED7B937A0179A0787B
:101ADD003B1209C97BEC7A51793878BE1208D8A827
:101AED0004A905AA06AB07E4FFFE7DB08027120B03
:101AFD00ED7B937A0179A0783B1209C97BA67A9B7D
:101B0D0079C478BC1208D8A804A905AA06AB077F2A
:0E1B1D00667E667DEA7C41120AD2120C2622F8
:1013AD0020A2657861E6FFE48F27F526F525F52463
:1013BD007528037529107D017F08121BB77863E628
:1013CD00FFE48F27F526F525F524752803752910DB
:1013DD007D017F2B121BB77859E6FFE48F27F52689
:1013ED00F525F5247528037529107D017F56121BEF
:1013FD00B7E4851627F526F525F5247528017529F9
:10140D00107D027F78121BB720A3707849E6FE0885
:10141D00E6FFE48F278E26F525F524752805752919
:10142D00107D03FF121BB77865E6FE08E6FFE48F1B
:10143D00278E26F525F5247528047529107D037F43
:10144D002B121BB7786CE6FE08E6FFE48F278E267D
:10145D00F525F5247528047529107D027F2B121BA7
:10146D00B77846E6FFE48F27F526F525F524752890
:10147D00037529107D037F56121BB720A42A784CC3
:10148D00E6FB7530107D027F501217A87873E6FECB
:10149D0008E6FFE48F278E26F525F52475280575BA
:0914AD0029107D02FF121BB72279
:101297007859E6FF7861E6FED39F5003021329EFE2
:1012A700FDEE9DFDE49400FCE4120BEDC004C005C7
:1012B700C006C0077859E6FCE4120BF2A804A9059A
:1012C700AA06AB07D007D006D005D004120AD28FE2
:1012D7001B8E1A8D198C18E4FFFE7D807C3FAB1B9B
:1012E700AA1AA919A818120B6F600D400BE4F51B79
:1012F700F51A75198075183FE4FFFE7DF07C41AB48
:101307001BAA1AA919A8181209C9120C268F17C3E4
:10131700745A95177846F6C3942D40030213AC769A
:101327002D227861E6FF7859E6C39FFDE49400FC1F
:10133700E4120BEDC004C005C006C0077861E6FCE7
:10134700E4120BF2A804A905AA06AB07D007D0063A
:10135700D005D004120AD28F1B8E1A8D198C18E46F
:10136700FFFE7D807C3FAB1BAA1AA919A818120B98
:101377006F600D400BE4F51BF51A75198075183F62
:10138700E4FFFE7DF07C41AB1BAA1AA919A818122D
:1013970009C9120C268F17E517245A7846F6D394F5
:0613A70087400276872258
:0300130002002EBA
:10002E00C0E0C0D075D000C00020001D75D700758F
:10003E00D6DC438E10C2AAD200786606E61870018E
:10004E0006784A06E618700106D000D0D0D0E0320D
:0300630002000395
:08000300C200538EEFD2AA32B5
:03000B000211607F
:10116000C0E0C0F0C083C082C0D075D000C000C055
:0D11700001C002C003C004C005C006C007D6
:10117D00C28C758C00758A00200548C2AA7872E66B
:10118D00FCE4120BF27B147AAE792378411209C973
:10119D00A804A905AA06AB077F007E337D7E7C4798
:1011AD001208D4120C267876A60608A60718E6FCB7
:1011BD0008E6FDECF58CAF058F8AD2B4D205D28C42
:1011CD0002127CD2AA7872E6FCE4120BF27B147A3E
:1011DD00AE792378411209C97B007ACE79397847E7
:1011ED001208D8120C267878A60608A60718E6FC71
:1011FD0008E6FDECF58CAF058F8AC2B4C205D28C22
:10120D00786BE6FFC374209FFDE49400FCE4120BA1
:10121D00EDE4FBFA79C0783F1209C9120C267875F6
:10122D00A6077872E6FF7846E6FED39F401BEFFDDA
:10123D00EE9DFFE49400FE7875E6FD7C00120DE353
:10124D00EF2402787226F680267846E6FFC3787280
:10125D0096501CE6FBC39FFFE49400FE7875E6FDF7
:0F126D007C00120DE3EF2402FFC3EB9F7872F6B3
:10127C00D007D006D005D004D003D002D001D000C6
:0B128C00D0D0D082D083D0F0D0E03270
:03001B00020FDEF3
:100FDE00C0E0C0F0C083C082C0D075D000C000C0D9
:0D0FEE0001C002C003C004C005C006C0075A
:100FFB00C28E758D00758B00200648C2AA784BE611
:10100B00FCE4120BF27B147AAE792378411209C9F6
:10101B00A804A905AA06AB077F007E337D7E7C471B
:10102B001208D4120C26787AA60608A60718E6FC36
:10103B0008E6FDECF58DAF058F8BD2B5D206D28EBF
:10104B00021145D2AA784BE6FCE4120BF27B147A20
:10105B00AE792378411209C97B007ACE793978476A
:10106B001208D8120C26787CA60608A60718E6FCF0
:10107B0008E6FDECF58DAF058F8BC2B5C206D28E9F
:10108B00785606E6187001067855E6FE08E6FF7CF2
:10109B00007D32120DE37847A60608A607785B069B
:1010AB00E618700106C3785BE6941418E6940050BA
:1010BB00030211457600087600786CE6FE08E6FF21
:1010CB007865E6FC08E6FDD39FEC9E401CED9FFF88
:1010DB00EC9EFED3EF9432EE9400400D786DE62437
:1010EB00327966F718E43619F77865E6FE08E6FFFD
:1010FB00786CA60608A607786BEFF6D39419400216
:10110B007619786BE6C39406500276063004207885
:10111B0065E6FE08E6FFC3940FEE94004006784B9D
:10112B00765D800FD3EF9408EE9400500680007824
:0A113B004B764678657600087600D2
:10114500D007D006D005D004D003D002D001D000FE
:0B115500D0D0D082D083D0F0D0E032A8
:0A219100788E7614788EE61670FA48
:01219B002221
:0B2161000000007F0B7EBEDEFEDFFCF6
:01216C002250
:1020C100AD07AC06ED1DAE0470011C4E600512217A
:0420D1006180F12217
:10209400AB07AA06EB1BAE0270011A4E60097FE87B
:0820A4007E031220C180ED2231
:021D0400C10913
:1020AC00538E3B758911E4F58CF58AF58DF58BF51E
:0520BC00D775D6DC22FF
:0218E2008F1C59
:1018E400751D02E51CD394874003751C87E51CC352
:1018F400942D5003751C2DAC1CE4120BF27B147A4E
:10190400AE792378411209C9A804A905AA06AB0730
:101914007F007E337D7E7C471208D4120C268E1EF7
:101924008F1FAC1CE4120BF27B147AAE792378413E
:101934001209C97B007ACE793978471208D8120C7B
:1019440026AD07AC06C209AF1D151DEF6025E51EC7
:10195400F58D851F8BD28ED2B4A209B340FBC20988
:101964008C8DAF058F8BD28EC2B4A209B340FBC25B
:031974000980D413
:01197700224D
:021978008F3DA1
:10197A00753E02E53DD394874003753D87E53DC337
:10198A00942D5003753D2DAC3DE4120BF27B147A75
:10199A00AE792378411209C9A804A905AA06AB079A
:1019AA007F007E337D7E7C471208D4120C268E3F40
:1019BA008F40AC3DE4120BF27B147AAE7923784166
:1019CA001209C97B007ACE793978471208D8120CE5
:1019DA0026AD07AC06C209AF3E153EEF6025E53FCE
:1019EA00F58D85408BD28ED2B5A209B340FBC209D0
:1019FA008C8DAF058F8BD28EC2B5A209B340FBC2C4
:031A0A000980D47C
:011A0D0022B6
:1020D50000000000000000000000000000000000FB
:0420E50000000000F7
:041D0600C108C10748
:0816C3008B388A39893A8D3B0E
:1016CB0078807C007D007BFF7A2079D57E007F14AB
:1016DB00120D77E4F53CE53CC3953B5025AB38AA9E
:1016EB0039A93A75F002E53CA4F58285F083120E18
:1016FB0038FFE53C25E02480F8A6F008A607053C5A
:10170B0080D4E4F53CE53B14FFE53CC39F505CE41F
:10171B00FFE53B14C3953CFEEFC39E504AEF25E01B
:10172B002483F9EF25E02480F8E6FC08E6FDC39757
:10173B00EC1997502F787EA60408A605EF25E02418
:10174B0082F8E6FC08E6FDEF25E02480F8A6040805
:10175B00A605787EE6FC08E6FDEF25E02482F8A6D8
:10176B000408A6050F80AA053C809AE4F53CE53CED
:10177B00C3953B5027E53C25E02480F8E6FE08E6C0
:10178B00FFAB38AA39A93A75F002E53CA4F582857E
:0C179B00F083EE8FF0120E70053C80D23F
:0117A700221F
:03002B000221C0EF
:0621C00075BC00D20832DC
:0C216D00759D0EE4F5BDF5BE75BC882222
:101DCB00E4787EF608F6D207EFD394084002E4FFDE
:101DDB00C208EF4488F5BCA208B340FBAFBDEF755A
:101DEB00F004A4FFAEF0E5BE54037C002F787FF621
:0B1DFB00EC3E18F6C207E6FE08E6FF0B
:011E060022B9
:0F211A00D2CDD2CC122191C2CD122191C2CC22B2
:0C217900C2CDD2CC122191D2CD02219116
:0E213800A20A92CDD2CC122191C2CC022191EA
:0D001E00D2CC122191A2CDC2CC1221912290
:021F83008F24A9
:101F8500E4F525E52425E0F52492CDD2CC12219166
:101F9500C2CC1221910525E525C3940840E5020030
:011FA5001E1D
:101EC400E4F524D2CDF523E52425E0F524D2CC1283
:101ED4002191A2CDE4334224C2CC1221910523E501
:081EE40023C3940840E1AF2480
:011EEC0022D3
:10204A008F228D2312211A7F3C121F83AF22121F67
:09205A0083AF23121F83022179D8
:021EED008F4420
:101EEF0012211A7F3C121F83AF44121F8312211A33
:101EFF007F3D121F83121EC48F45D20A1221381242
:041F0F002179AF4540
:011F130022AB
:101D0B0012211A7F3C121F837F03121F8312211A89
:101D1B007F3D121F83E4F522121EC474082522F89E
:101D2B00A607E522B40504D20A8002C20A122138A2
:101D3B000522E522C3940640DF1221797F057E0040
:031D4B000220C1B2
:0721B900E4FD7F0202204A51
:0F212900D2B1D2B0122191C2B1122191C2B02213
:0C218500C2B1D2B0122191D2B10221915E
:0E214600A20A92B1D2B0122191C2B002219130
:0D215400D2B0122191A2B1C2B0122191228D
:021F5F008F24CD
:101F6100E4788CF6E52425E0F52492B1D2B0122173
:101F710091C2B0122191788C06E6C3940840E50223
:021F81002154E9
:101E4000E4788DF6D2B118F6788DE6FF25E0F6D26B
:101E5000B0122191A2B1E433788D46F6C2B01221BE
:0E1E600091788C06E6C3940840DE788DE6FF8C
:011E6E002251
:102063008F228D231221297FD0121F5FAF22121FCF
:092073005FAF23121F5F022185FB
:021E6F008F23BF
:101E71001221297FD0121F5FAF23121F5F12212968
:101E81007FD1121F5F121E40788BA607D20A122142
:081E910046122185788BE6FF63
:011E99002226
:101FA600E4FD7F6B1220637D077F191220637D0697
:101FB6007F1A1220637D187F1B1220637D017F1C10
:031FC60002206393
:021FEB008F2243
:101FED00121E6F7889A607E52204FF121E6F788AEC
:0E1FFD00EFF6FD18E6FE7C00E42DFFEC3EFE44
:01200B0022B2
:0A219C0000007F027E1ADEFEDFFC69
:0121A6002216
:02200C00AD071E
:10200E007B08C2B112219CAF031BEF600DED139242
:0F201E00B112219CEDC313FD80EDD2B102219CC4
:101F3A008B418A428943AB41AA42A943120D9D6053
:101F4A00130543E5437002054214F9120D9DFF1271
:051F5A00200C80E222D2
:1008D100020C92E86480F8E933E83360110460F0B7
:1008E100ED33EC337009E8FCE9FDEAFEEBFF22048D
:1008F10060DED3EB9FEA9EE99DE8C2E78CF0C2F788
:1009010095F0400CE8CCF8E9CDF9EACEFAEBCFFB53
:10091100120C5D85D0F05804700320D5B3E8047043
:10092100075002B2D5020C9C92D5EC0460F7E4CCDE
:10093100C0E0C398F8603B94186008400DD0E0FB1C
:10094100020C74E4FBFAC9FC8028E830E406E4C92F
:10095100FBE4CAFCE830E305E4C9CACBFCE8540770
:100961006010F8C3E913F9EA13FAEB13FBEC13FC7B
:10097100D8F130F52FC3E49CFCEF9BFFEE9AFEED1E
:1009810099FDD0E0FBEF4E4D4C701222DB03020CBF
:1009910099EC2CFCEF33FFEE33FEED33FDED30E748
:1009A100EB020C74EF2BFFEE3AFEED39FDD0E0FBCC
:1009B10050130BBB0003020C9CED13FDEE13FEEF75
:0809C10013FFEC13FC020C749F
:1009C900EC4D6011E8497017ED33EC3304600DE428
:1009D900FCFFFEFD22E933E8330470F8020C9212A1
:1009E9000C5D58046009E4CC2481500628500902A2
:1009F9000C9C284003020C99C0E0EB4A7044B98072
:100A090006D0E0FB020C88EF4E701CBD8008EBFF9E
:100A1900EAFEE9FD80EBE98DF0A4FEE5F0020AB2F9
:100A2900E9CDF9EAFEEBFFEF89F0A4FCE5F0CE8908
:100A3900F0A42EFFE435F0CD89F0A42DFEE435F0C5
:100A49008067EF4E7005BD80D780C3EF8BF0A4ACF3
:100A5900F0EE8BF0A42CFCE435F0F8EF8AF0A42C2E
:100A6900E5F038FCE433CB8DF0A42CFCE5F03BF841
:100A7900EE8AF0A42CFCE5F038F8E433CF89F0A431
:100A89002CFCE5F038CF3400CE89F0A42FFFE5F037
:100A99003EFEE433C98DF0A42EFEE5F039CD8AF08F
:100AA900A42FFFE5F03EFEE43DFD33D0E0FB500707
:100AB9000BBB000F020C9CEC2CFCEF33FFEE33FE5A
:060AC900ED33FD020C7488
:100ACF00020C9CEC5D046005E859047003020C9263
:100ADF00120C5D580460F6EC4860F2EC7004FDFEF9
:100AEF00FF22C860DB2481C85009C39860025006FA
:100AFF00020C999850CAF582E9294B4A7005AB82CE
:100B0F00020C8875F0007C1A7880C3EF9BEE9AED8B
:100B1F0099400DC3EF9BFFEE9AFEED99FDE842F071
:100B2F00DC23ACF0D0E0FFD0E0FED0E0FDAB8220C4
:100B3F00E7101BEB60BAEC2CFCEF33FFEE33FEED4E
:100B4F0033FD020C74E803F830E705C0F075F000D0
:100B5F00EF2FFFEE33FEED33FD40B830E7C280AA32
:100B6F0074F8CC6480CCC86480C8F58204604FC32D
:100B7F00EB9FF5F0EA9E42F0E99D42F0E89C45F0CC
:100B8F00603C501DE5825FFFE582D313CB5BCBF456
:100B9F002B5582FB50280ABA002409B9002008807F
:100BAF001DE5825BFBE582D313CF5FCFF4C3132F19
:100BBF005582FF50090EBE00050DBD00010CC3EBA1
:100BCF009FF5F0EA9E42F0E99D42F0E89C45F06007
:090BDF0007CC4820E701B3EC2229
:100BE80075F020800E75F010800575F0087D007E88
:100BF800007F003392D530D503120FBAEC33401082
:100C0800EF33FFEE33FEED33FDEC33FCD5F0ED2290
:0E0C1800E5F0247EA2D513CC92E7CDCEFF22CC
:100C2600EDD2E7CD33EC3392D524814006E4FFFEC6
:100C3600FDFC22FCE4CFCECDCC24E0501174FF8025
:100C4600EDC3CC13CCCD13CDCE13CECF13CF0470C2
:070C5600F030D5DE020FBAF9
:100C5D00E9D2E7C933E833F892D5EDD2E7CD33ECDD
:070C6D0033FC5002B2D52256
:100C7400EC30E7100FBF000C0EBE00080DBD0004E1
:100C84000BEB6014A2D5EB13FCED92E7FD2274FF8D
:100C9400FCFDFEFF22E480F8A2D574FF13FC7D80E6
:030CA400E480EFFA
:03000000021B2BB5
:0C1B2B00787FE4F6D8FD758193021B72F0
:100CA700E709F608DFFA8046E709F208DFFA803E2F
:100CB70088828C83E709F0A3DFFA8032E309F6081C
:100CC700DFFA8078E309F208DFFA807088828C8384
:100CD700E309F0A3DFFA806489828A83E0A3F60838
:100CE700DFFA805889828A83E0A3F208DFFA804C12
:100CF70080D280FA80C680D4806980F280338010E9
:100D070080A680EA809A80A880DA80E280CA803351
:100D170089828A83ECFAE493A3C8C582C8CCC583C9
:100D2700CCF0A3C8C582C8CCC583CCDFE9DEE78099
:100D37000D89828A83E493A3F608DFF9ECFAA9F018
:100D4700EDFB2289828A83ECFAE0A3C8C582C8CC6E
:100D5700C583CCF0A3C8C582C8CCC583CCDFEADE87
:100D6700E880DB89828A83E493A3F208DFF980CCE9
:100D770088F0EF60010E4E60C388F0ED2402B404E2
:100D87000050B9F582EB2402B4040050AF23234589
:060D97008223900CF773AB
:100D9D00BB010689828A83E0225002E722BBFE0254
:090DAD00E32289828A83E4932287
:100DB600BB010CE58229F582E5833AF583E02250F2
:100DC60006E92582F8E622BBFE06E92582F8E2223C
:0D0DD600E58229F582E5833AF583E4932256
:100DE300BC000BBE0029EF8DF084FFADF022E4CCF4
:100DF300F875F008EF2FFFEE33FEEC33FCEE9DECBD
:100E0300984005FCEE9DFE0FD5F0E9E4CEFD22ED02
:100E1300F8F5F0EE8420D21CFEADF075F008EF2F4C
:100E2300FFED33FD4007985006D5F0F222C398FD3D
:050E33000FD5F0EA22DA
:100E3800BB0110E58229F582E5833AF583E0F5F0F8
:100E4800A3E0225009E92582F886F008E622BBFED5
:100E58000AE92582F8E2F5F008E222E5832AF5831B
:080E6800E993F5F0A3E99322E0
:100E7000F8BB0111E58229F582E5833AF583E8F0B4
:100E8000E5F0A3F0225009E92582C8F608A6F02271
:0D0E9000BBFE09E92582C8F2E5F008F22258
:100E9D00E88FF0A4CC8BF0A42CFCE98EF0A42CFCF4
:100EAD008AF0EDA42CFCEA8EF0A4CDA8F08BF0A472
:100EBD002DCC3825F0FDE98FF0A42CCD35F0FCEBD1
:100ECD008EF0A4FEA9F0EB8FF0A4CFC5F02ECD3996
:0F0EDD00FEE43CFCEAA42DCE35F0FDE43CFC2203
:100EEC0075F008758200EF2FFFEE33FECD33CDCCBD
:100EFC0033CCC58233C5829BED9AEC99E582984040
:100F0C000CF582EE9BFEED9AFDEC99FC0FD5F0D61C
:100F1C00E4CEFBE4CDFAE4CCF9A88222B800C1B946
:100F2C000059BA002DEC8BF084CFCECDFCE5F0CB84
:100F3C00F97818EF2FFFEE33FEED33FDEC33FCEBBD
:100F4C0033FB10D703994004EB99FB0FD8E5E4F978
:100F5C00FA227818EF2FFFEE33FEED33FDEC33FC65
:100F6C00C933C910D7059BE99A4007EC9BFCE99A59
:100F7C00F90FD8E0E4C9FAE4CCFB2275F010EF2F9E
:100F8C00FFEE33FEED33FDCC33CCC833C810D7079E
:100F9C009BEC9AE899400AED9BFDEC9AFCE899F8D9
:0E0FAC000FD5F0DAE4CDFBE4CCFAE4C8F9226C
:0E0FBA00C3E49FFFE49EFEE49DFDE49CFC2248
:100FC800EB9FF5F0EA9E42F0E99D42F0EC6480C8A0
:060FD80064809845F02240
:101B3700021A0EE493A3F8E493A34003F68001F29C
:101B470008DFF48029E493A3F85407240CC8C333AF
:101B5700C4540F4420C8834004F456800146F6DF7E
:101B6700E4800B0102040810204080901CB2E47E40
:101B7700019360BCA3FF543F30E509541FFEE49373
:101B8700A360010ECF54C025E060A840B8E493A33A
:101B9700FAE493A3F8E493A3C8C582C8CAC583CA65
:101BA700F0A3C8C582C8CAC583CADFE9DEE780BE1D
:011D0A0000D8
:00000001FF
